{
  "_format": "hh-sol-artifact-1",
  "contractName": "MessageBoard",
  "sourceName": "contracts/MessageBoard.sol",
  "abi": [
    {
      "inputs": [],
      "stateMutability": "nonpayable",
      "type": "constructor"
    },
    {
      "inputs": [],
      "name": "getMessages",
      "outputs": [
        {
          "components": [
            {
              "internalType": "string",
              "name": "message",
              "type": "string"
            },
            {
              "internalType": "uint256",
              "name": "timestamp",
              "type": "uint256"
            },
            {
              "internalType": "address",
              "name": "from",
              "type": "address"
            }
          ],
          "internalType": "struct MessageBoard.Message[]",
          "name": "",
          "type": "tuple[]"
        }
      ],
      "stateMutability": "view",
      "type": "function"
    },
    {
      "inputs": [
        {
          "internalType": "string",
          "name": "message",
          "type": "string"
        }
      ],
      "name": "sendMessage",
      "outputs": [],
      "stateMutability": "payable",
      "type": "function"
    }
  ],
  "bytecode": "0x608060405234801561001057600080fd5b5033600160006101000a81548173ffffffffffffffffffffffffffffffffffffffff021916908373ffffffffffffffffffffffffffffffffffffffff160217905550610a19806100616000396000f3fe6080604052600436106100295760003560e01c8063469c81101461002e5780635ff6cbf31461004a575b600080fd5b610048600480360381019061004391906103ee565b610075565b005b34801561005657600080fd5b5061005f61022e565b60405161006c9190610637565b60405180910390f35b600034116100b8576040517f08c379a00000000000000000000000000000000000000000000000000000000081526004016100af906106b6565b60405180910390fd5b600160009054906101000a900473ffffffffffffffffffffffffffffffffffffffff1673ffffffffffffffffffffffffffffffffffffffff166108fc349081150290604051600060405180830381858888f19350505050158015610120573d6000803e3d6000fd5b506000604051806060016040528084848080601f016020809104026020016040519081016040528093929190818152602001838380828437600081840152601f19601f8201169050808301925050505050505081526020014281526020013373ffffffffffffffffffffffffffffffffffffffff16815250908060018154018082558091505060019003906000526020600020906003020160009091909190915060008201518160000190816101d69190610911565b506020820151816001015560408201518160020160006101000a81548173ffffffffffffffffffffffffffffffffffffffff021916908373ffffffffffffffffffffffffffffffffffffffff16021790555050505050565b60606000805480602002602001604051908101604052809291908181526020016000905b82821015610376578382906000526020600020906003020160405180606001604052908160008201805461028590610734565b80601f01602080910402602001604051908101604052809291908181526020018280546102b190610734565b80156102fe5780601f106102d3576101008083540402835291602001916102fe565b820191906000526020600020905b8154815290600101906020018083116102e157829003601f168201915b50505050508152602001600182015481526020016002820160009054906101000a900473ffffffffffffffffffffffffffffffffffffffff1673ffffffffffffffffffffffffffffffffffffffff1673ffffffffffffffffffffffffffffffffffffffff168152505081526020019060010190610252565b50505050905090565b600080fd5b600080fd5b600080fd5b600080fd5b600080fd5b60008083601f8401126103ae576103ad610389565b5b8235905067ffffffffffffffff8111156103cb576103ca61038e565b5b6020830191508360018202830111156103e7576103e6610393565b5b9250929050565b600080602083850312156104055761040461037f565b5b600083013567ffffffffffffffff81111561042357610422610384565b5b61042f85828601610398565b92509250509250929050565b600081519050919050565b600082825260208201905092915050565b6000819050602082019050919050565b600081519050919050565b600082825260208201905092915050565b60005b838110156104a1578082015181840152602081019050610486565b60008484015250505050565b6000601f19601f8301169050919050565b60006104c982610467565b6104d38185610472565b93506104e3818560208601610483565b6104ec816104ad565b840191505092915050565b6000819050919050565b61050a816104f7565b82525050565b600073ffffffffffffffffffffffffffffffffffffffff82169050919050565b600061053b82610510565b9050919050565b61054b81610530565b82525050565b6000606083016000830151848203600086015261056e82826104be565b91505060208301516105836020860182610501565b5060408301516105966040860182610542565b508091505092915050565b60006105ad8383610551565b905092915050565b6000602082019050919050565b60006105cd8261043b565b6105d78185610446565b9350836020820285016105e985610457565b8060005b85811015610625578484038952815161060685826105a1565b9450610611836105b5565b925060208a019950506001810190506105ed565b50829750879550505050505092915050565b6000602082019050818103600083015261065181846105c2565b905092915050565b600082825260208201905092915050565b7f506c656173652073656e6420736f6d6520457468657200000000000000000000600082015250565b60006106a0601683610659565b91506106ab8261066a565b602082019050919050565b600060208201905081810360008301526106cf81610693565b9050919050565b7f4e487b7100000000000000000000000000000000000000000000000000000000600052604160045260246000fd5b7f4e487b7100000000000000000000000000000000000000000000000000000000600052602260045260246000fd5b6000600282049050600182168061074c57607f821691505b60208210810361075f5761075e610705565b5b50919050565b60008190508160005260206000209050919050565b60006020601f8301049050919050565b600082821b905092915050565b6000600883026107c77fffffffffffffffffffffffffffffffffffffffffffffffffffffffffffffffff8261078a565b6107d1868361078a565b95508019841693508086168417925050509392505050565b6000819050919050565b600061080e610809610804846104f7565b6107e9565b6104f7565b9050919050565b6000819050919050565b610828836107f3565b61083c61083482610815565b848454610797565b825550505050565b600090565b610851610844565b61085c81848461081f565b505050565b5b8181101561088057610875600082610849565b600181019050610862565b5050565b601f8211156108c55761089681610765565b61089f8461077a565b810160208510156108ae578190505b6108c26108ba8561077a565b830182610861565b50505b505050565b600082821c905092915050565b60006108e8600019846008026108ca565b1980831691505092915050565b600061090183836108d7565b9150826002028217905092915050565b61091a82610467565b67ffffffffffffffff811115610933576109326106d6565b5b61093d8254610734565b610948828285610884565b600060209050601f83116001811461097b5760008415610969578287015190505b61097385826108f5565b8655506109db565b601f19841661098986610765565b60005b828110156109b15784890151825560018201915060208501945060208101905061098c565b868310156109ce57848901516109ca601f8916826108d7565b8355505b6001600288020188555050505b50505050505056fea264697066735822122014602ccdb1c9b6ec3806327cb57d7a60c3791ae55af6836c5fc852fb5f3ca29d64736f6c63430008180033",
  "linkReferences": {},
  "deployedLinkReferences": {}
}